:020000001628C0
:0E0006008312031321088A00200882000800DC
:1000140003208A110A128000840AA00A0319A10A83
:08002400F003031D0A28080087
:10002C00F830831603138500F8308600C030870043
:10003C008801831286018501880187010514051C3E
:10004C004B288514851C4B280515051D4B2885153B
:10005C00851D4B280516051E4B280514051C4B2821
:10006C008514851C4B280515051D4B288515851DEC
:10007C004B280516051E4B280814881408158815DE
:10008C00081288120813881333280514051C8628B7
:10009C008514851C86280511051D86288515851D4A
:1000AC0086280516051E86280514051C8628851429
:1000BC00851C86280511051D86288515851D862815
:1000CC000516051E862808108810081188110816B8
:1000DC008816081788171430FB004830FC000130D4
:1000EC00FD00FD0B7728FC0B7728FB0B77280810FD
:1000FC0088140811881508128812081388135A28B6
:10010C000510051CC1288510851CC1280511051D6D
:10011C00C1288515851DC1280516051EC128051089
:10012C00051CC1288510851CC1280511051DC12879
:10013C008515851DC1280516051EC12808108810B7
:10014C000811881108168816081788171430FB0038
:10015C004830FC000130FD00FD0BB228FC0BB2282E
:10016C00FB0BB22808148810081588110812881285
:10017C000813881395280510051CFE288510851C6E
:10018C00FE280515051DFE288515851DFE2805165E
:10019C00051EFE280510051CFE288510851CFE2852
:1001AC000515051DFE288515851DFE280516051E41
:1001BC00FE280810881008118811081688160817D0
:1001CC0088170B30FB002630FC005D30FD00FD0B6A
:1001DC00ED28FC0BED28FB0BED28000000000814AB
:1001EC008810081588110812881208138813D02853
:1001FC000514051C39298514851C39290511051D83
:10020C0039298511851D39290512051E3929051431
:10021C00051C39298514851C39290511051D392919
:10022C008511851D39290512051E392908108810DC
:10023C000811881108168816081788171430FB0047
:10024C004830FC000130FD00FD0B2A29FC0B2A294B
:10025C00FB0B2A290810881408118815081288121B
:10026C00081388130D290514051C76298514851C83
:10027C0076290515051D76298511851D762905120A
:10028C00051E76290514051C76298514851C7629EE
:10029C000515051D76298511851D76290512051E66
:1002AC007629081088100811881108168816081766
:1002BC0088170B30FB002630FC005D30FD00FD0B79
:1002CC006529FC0B6529FB0B652900000000081053
:1002DC0088140811881508128812081388134829E5
:1002EC000614061C9D298614861C9D290615061DC0
:1002FC009D298615861D9D290616061E9D29061408
:10030C00061C9D298614861C9D290615061D9D29F3
:10031C008615861D9D290616061E9D29081488140F
:10032C0008158815081288120813881385290610D9
:10033C00061CC4298610861CC4290615061DC42952
:10034C008615861DC4290616061EC4290610061C11
:10035C00C4298610861CC4290615061DC4298615B9
:10036C00861DC4290616061EC429081488100815F3
:10037C0088110812881208138813AC290610061C61
:10038C00EB298610861CEB290611061DEB29861518
:10039C00861DEB290616061EEB290610061CEB29FA
:1003AC008610861CEB290611061DEB298615861D69
:1003BC00EB290616061EEB2908148810081588115F
:1003CC000812881208138813D3290614061C122A43
:1003DC008614861C122A0611061D122A8611861DE9
:1003EC00122A0612061E122A0614061C122A86143B
:1003FC00861C122A0611061D122A8611861D122A27
:10040C000612061E122A08108814081188150812E4
:10041C00881208138813FA290614061C392A861424
:10042C00861C392A0615061D392A8611861D392A7D
:10043C000612061E392A0614061C392A8614861C36
:10044C00392A0615061D392A8611861D392A0612E7
:10045C00061E392A081088140811881508128812EB
:10046C0008138813212A0714071C4E2A8714871C8B
:10047C004E2A0714071C4E2A8714871C4E2A081470
:10048C0088140815881508128812081388133F2A37
:10049C000714071C632A8710871C632A0714071C80
:1004AC00632A8710871C632A081088140811881582
:1004BC000812881208138813542A0710071C782A6C
:1004CC008714871C782A0710071C782A8714871C26
:1004DC00782A081488100815881108128812081335
:1004EC008813692A0710071C8D2A8710871C8D2AF0
:1004FC000710071C8D2A8710871C8D2A0814881456
:10050C000815881508128812081388137E2A0510FE
:10051C00051CF42A8510851CF42A0511051DF42AE6
:10052C008511851DF42A0512051EF42A0710071CD7
:10053C00F42A8710871CF42A0610061CF42A86104D
:10054C00861CF42A0611061DF42A8611861DF42A2F
:10055C000612061EF42A0510051CF42A8510851CAB
:10056C00F42A0511051DF42A8511851DF42A05129E
:10057C00051EF42A0710071CF42A8710871CF42A7E
:10058C000610061CF42A8610861CF42A0611061D79
:10059C00F42A8611861DF42A0612061EF42A081067
:1005AC0088100811881108128812081388130B3050
:1005BC00FB002630FC005D30FD00FD0BE32AFC0B3C
:1005CC00E32AFB0BE32A0000000008108810081136
:0E05DC0088110812881208138813B12AF42A15
:02400E007A3BFB
:00000001FF
